{
  "contractName": "EVoting",
  "abi": [
    {
      "inputs": [],
      "stateMutability": "nonpayable",
      "type": "constructor"
    },
    {
      "inputs": [
        {
          "internalType": "int256",
          "name": "",
          "type": "int256"
        }
      ],
      "name": "partyRecords",
      "outputs": [
        {
          "internalType": "int256",
          "name": "candidate_ID",
          "type": "int256"
        },
        {
          "internalType": "string",
          "name": "candidate_Name",
          "type": "string"
        },
        {
          "internalType": "string",
          "name": "voting_symbol",
          "type": "string"
        },
        {
          "internalType": "string",
          "name": "voter_name",
          "type": "string"
        },
        {
          "internalType": "string",
          "name": "aadhar_number",
          "type": "string"
        }
      ],
      "stateMutability": "view",
      "type": "function",
      "constant": true
    },
    {
      "inputs": [],
      "name": "voteCount",
      "outputs": [
        {
          "internalType": "int256",
          "name": "",
          "type": "int256"
        }
      ],
      "stateMutability": "view",
      "type": "function",
      "constant": true
    },
    {
      "inputs": [
        {
          "internalType": "int256",
          "name": "_candidate_ID",
          "type": "int256"
        },
        {
          "internalType": "string",
          "name": "_candidate_Name",
          "type": "string"
        },
        {
          "internalType": "string",
          "name": "_voting_symbol",
          "type": "string"
        },
        {
          "internalType": "string",
          "name": "_voter_name",
          "type": "string"
        },
        {
          "internalType": "string",
          "name": "_aadhar_number",
          "type": "string"
        }
      ],
      "name": "markVote",
      "outputs": [],
      "stateMutability": "nonpayable",
      "type": "function"
    },
    {
      "inputs": [
        {
          "internalType": "int256",
          "name": "_candidate_ID",
          "type": "int256"
        }
      ],
      "name": "getCount",
      "outputs": [
        {
          "internalType": "int256",
          "name": "count",
          "type": "int256"
        }
      ],
      "stateMutability": "view",
      "type": "function",
      "constant": true
    }
  ],
  "bytecode": "0x6080604052600060015534801561001557600080fd5b50336000806101000a81548173ffffffffffffffffffffffffffffffffffffffff021916908373ffffffffffffffffffffffffffffffffffffffff160217905550610ae3806100656000396000f3fe608060405234801561001057600080fd5b506004361061004c5760003560e01c80631a5d77d31461005157806345d026ee1461006d578063883061961461009d578063c6384071146100d1575b600080fd5b61006b60048036038101906100669190610707565b6100ef565b005b610087600480360381019061008291906107f2565b61021f565b604051610094919061082e565b60405180910390f35b6100b760048036038101906100b291906107f2565b610278565b6040516100c89594939291906108d1565b60405180910390f35b6100d96104ce565b6040516100e6919061082e565b60405180910390f35b3373ffffffffffffffffffffffffffffffffffffffff1660008054906101000a900473ffffffffffffffffffffffffffffffffffffffff1673ffffffffffffffffffffffffffffffffffffffff161461014757600080fd5b6040518060a00160405280868152602001858152602001848152602001838152602001828152506002600060015481526020019081526020016000206000820151816000015560208201518160010190805190602001906101a99291906104d4565b5060408201518160020190805190602001906101c69291906104d4565b5060608201518160030190805190602001906101e39291906104d4565b5060808201518160040190805190602001906102009291906104d4565b5090505060018054610212919061096f565b6001819055505050505050565b600080600090505b60015481121561027257826002600083815260200190815260200160002060000154141561025f5760018261025c919061096f565b91505b808061026a90610a03565b915050610227565b50919050565b60026020528060005260406000206000915090508060000154908060010180546102a190610a7b565b80601f01602080910402602001604051908101604052809291908181526020018280546102cd90610a7b565b801561031a5780601f106102ef5761010080835404028352916020019161031a565b820191906000526020600020905b8154815290600101906020018083116102fd57829003601f168201915b50505050509080600201805461032f90610a7b565b80601f016020809104026020016040519081016040528092919081815260200182805461035b90610a7b565b80156103a85780601f1061037d576101008083540402835291602001916103a8565b820191906000526020600020905b81548152906001019060200180831161038b57829003601f168201915b5050505050908060030180546103bd90610a7b565b80601f01602080910402602001604051908101604052809291908181526020018280546103e990610a7b565b80156104365780601f1061040b57610100808354040283529160200191610436565b820191906000526020600020905b81548152906001019060200180831161041957829003601f168201915b50505050509080600401805461044b90610a7b565b80601f016020809104026020016040519081016040528092919081815260200182805461047790610a7b565b80156104c45780601f10610499576101008083540402835291602001916104c4565b820191906000526020600020905b8154815290600101906020018083116104a757829003601f168201915b5050505050905085565b60015481565b8280546104e090610a7b565b90600052602060002090601f0160209004810192826105025760008555610549565b82601f1061051b57805160ff1916838001178555610549565b82800160010185558215610549579182015b8281111561054857825182559160200191906001019061052d565b5b509050610556919061055a565b5090565b5b8082111561057357600081600090555060010161055b565b5090565b6000604051905090565b600080fd5b600080fd5b6000819050919050565b61059e8161058b565b81146105a957600080fd5b50565b6000813590506105bb81610595565b92915050565b600080fd5b600080fd5b6000601f19601f8301169050919050565b7f4e487b7100000000000000000000000000000000000000000000000000000000600052604160045260246000fd5b610614826105cb565b810181811067ffffffffffffffff82111715610633576106326105dc565b5b80604052505050565b6000610646610577565b9050610652828261060b565b919050565b600067ffffffffffffffff821115610672576106716105dc565b5b61067b826105cb565b9050602081019050919050565b82818337600083830152505050565b60006106aa6106a584610657565b61063c565b9050828152602081018484840111156106c6576106c56105c6565b5b6106d1848285610688565b509392505050565b600082601f8301126106ee576106ed6105c1565b5b81356106fe848260208601610697565b91505092915050565b600080600080600060a0868803121561072357610722610581565b5b6000610731888289016105ac565b955050602086013567ffffffffffffffff81111561075257610751610586565b5b61075e888289016106d9565b945050604086013567ffffffffffffffff81111561077f5761077e610586565b5b61078b888289016106d9565b935050606086013567ffffffffffffffff8111156107ac576107ab610586565b5b6107b8888289016106d9565b925050608086013567ffffffffffffffff8111156107d9576107d8610586565b5b6107e5888289016106d9565b9150509295509295909350565b60006020828403121561080857610807610581565b5b6000610816848285016105ac565b91505092915050565b6108288161058b565b82525050565b6000602082019050610843600083018461081f565b92915050565b600081519050919050565b600082825260208201905092915050565b60005b83811015610883578082015181840152602081019050610868565b83811115610892576000848401525b50505050565b60006108a382610849565b6108ad8185610854565b93506108bd818560208601610865565b6108c6816105cb565b840191505092915050565b600060a0820190506108e6600083018861081f565b81810360208301526108f88187610898565b9050818103604083015261090c8186610898565b905081810360608301526109208185610898565b905081810360808301526109348184610898565b90509695505050505050565b7f4e487b7100000000000000000000000000000000000000000000000000000000600052601160045260246000fd5b600061097a8261058b565b91506109858361058b565b9250817f7fffffffffffffffffffffffffffffffffffffffffffffffffffffffffffffff038313600083121516156109c0576109bf610940565b5b817f80000000000000000000000000000000000000000000000000000000000000000383126000831216156109f8576109f7610940565b5b828201905092915050565b6000610a0e8261058b565b91507f7fffffffffffffffffffffffffffffffffffffffffffffffffffffffffffffff821415610a4157610a40610940565b5b600182019050919050565b7f4e487b7100000000000000000000000000000000000000000000000000000000600052602260045260246000fd5b60006002820490506001821680610a9357607f821691505b60208210811415610aa757610aa6610a4c565b5b5091905056fea2646970667358221220068e645b7b482dec4b64a4f32f5fcaaa8241fcbb402c3fda86d7b1d0c8536b5564736f6c634300080b0033",
  "immutableReferences": {},
  "source": "// Solidity program to implement\r\n// the above approach\r\npragma solidity >= 0.8.11 <= 0.8.11;\r\n  \r\n// Build the Contract of EVoting\r\ncontract EVoting\r\n{\r\n    // Create a structure for \r\n    // student details\r\n    struct Party\r\n    {\r\n        int candidate_ID;\r\n        string candidate_Name;\r\n        string voting_symbol;\r\n\tstring voter_name;\r\n\tstring aadhar_number;       \r\n    }\r\n  \r\n    address owner;\r\n    int public voteCount = 0;\r\n    mapping(int => Party) public partyRecords;\r\n  \r\n    modifier onlyOwner\r\n    {\r\n        require(owner == msg.sender);\r\n        _;\r\n    }\r\n    constructor()\r\n    {\r\n        owner=msg.sender;\r\n    }\r\n  \r\n    // Create a function to add \r\n    // the new records\r\n    function markVote(int _candidate_ID, \r\n                           string memory _candidate_Name,\r\n                           string memory _voting_symbol,\r\n                           string memory _voter_name,\r\n\t\t\t   string memory _aadhar_number) public onlyOwner\r\n    {\r\n        // Increase the count by 1\r\n          \r\n        // Fetch the party details \r\n        // with the help of candidate id\r\n        partyRecords[voteCount] = Party(_candidate_ID, _candidate_Name, _voting_symbol, _voter_name,_aadhar_number);\r\n\t//uint total = partyRecords.length;\r\n\tvoteCount = voteCount + 1;\r\n    }\r\n  \r\n    // Create a function to add bonus marks \r\n    function getCount(int _candidate_ID) public view returns (int count) {\r\n\t\r\n    for (int i = 0; i < voteCount; i++) {\r\n        if (partyRecords[i].candidate_ID == _candidate_ID) {\r\n\t   count = count + 1;\r\n         }\r\n    }\r\n    return count;\r\n}\r\n}",
  "sourcePath": "C:\\Users\\T. Vamshidhar\\Desktop\\evoting\\w3stuff\\contracts\\EVoting.sol",
  "compiler": {
    "name": "solc",
    "version": "0.8.11+commit.d7f03943.Emscripten.clang"
  },
  "schemaVersion": "3.4.13",
  "updatedAt": "2023-03-23T09:53:29.729Z",
  "networkType": "ethereum",
  "devdoc": {
    "kind": "dev",
    "methods": {},
    "version": 1
  },
  "userdoc": {
    "kind": "user",
    "methods": {},
    "version": 1
  }
}